{
  "transactions": [
    {
      "hash": "0x782bffb906b45e9cfade0f1fcd3b7db829b761ca30ceccb02703cbc017927ba4",
      "transactionType": "CALL",
      "contractName": null,
      "contractAddress": "0x833589fcd6edb6e08f4c7c32d4f71b54bda02913",
      "function": "approve(address,uint256)",
      "arguments": [
        "0xb5D78DD3276325f5FAF3106Cc4Acc56E28e0Fe3B",
        "1000000"
      ],
      "transaction": {
        "from": "0x69eaf619c25521781b7267016911d7043acbc420",
        "to": "0x833589fcd6edb6e08f4c7c32d4f71b54bda02913",
        "gas": "0x12b1b",
        "value": "0x0",
        "input": "0x095ea7b3000000000000000000000000b5d78dd3276325f5faf3106cc4acc56e28e0fe3b00000000000000000000000000000000000000000000000000000000000f4240",
        "nonce": "0x0",
        "chainId": "0x2105"
      },
      "additionalContracts": [],
      "isFixedGasLimit": false
    },
    {
      "hash": "0xb22169ff066fef4a91196387af251ca81f5563c219931f50d06542e6b6fad2bc",
      "transactionType": "CALL",
      "contractName": null,
      "contractAddress": "0xb5d78dd3276325f5faf3106cc4acc56e28e0fe3b",
      "function": "createWithTimestampsLL((address,address,uint128,address,bool,bool,(uint40,uint40),string,(address,uint256)),(uint128,uint128),uint40)",
      "arguments": [
        "(0x69EAF619C25521781b7267016911D7043aCbc420, 0x69EAF619C25521781b7267016911D7043aCbc420, 1000000, 0x833589fCD6eDb6E08f4c7C32D4f71b54bdA02913, true, true, (1759282658, 1761874658), linear, (0x0000000000000000000000000000000000000000, 0))",
        "(0, 0)",
        "0"
      ],
      "transaction": {
        "from": "0x69eaf619c25521781b7267016911d7043acbc420",
        "to": "0xb5d78dd3276325f5faf3106cc4acc56e28e0fe3b",
        "gas": "0x45b70",
        "value": "0x0",
        "input": "0x7a695841000000000000000000000000000000000000000000000000000000000000008000000000000000000000000000000000000000000000000000000000000000000000000000000000000000000000000000000000000000000000000000000000000000000000000000000000000000000000000000000000000000000000000000000000000000000000000069eaf619c25521781b7267016911d7043acbc42000000000000000000000000069eaf619c25521781b7267016911d7043acbc42000000000000000000000000000000000000000000000000000000000000f4240000000000000000000000000833589fcd6edb6e08f4c7c32d4f71b54bda02913000000000000000000000000000000000000000000000000000000000000000100000000000000000000000000000000000000000000000000000000000000010000000000000000000000000000000000000000000000000000000068dc85e200000000000000000000000000000000000000000000000000000000690412e200000000000000000000000000000000000000000000000000000000000001600000000000000000000000000000000000000000000000000000000000000000000000000000000000000000000000000000000000000000000000000000000000000000000000000000000000000000000000000000000000000000000000066c696e6561720000000000000000000000000000000000000000000000000000",
        "nonce": "0x1",
        "chainId": "0x2105"
      },
      "additionalContracts": [],
      "isFixedGasLimit": false
    }
  ],
  "receipts": [
    {
      "status": "0x1",
      "cumulativeGasUsed": "0xd88d",
      "logs": [
        {
          "address": "0x833589fcd6edb6e08f4c7c32d4f71b54bda02913",
          "topics": [
            "0x8c5be1e5ebec7d5bd14f71427d1e84f3dd0314c0f7b2291e5b200ac8c7c3b925",
            "0x00000000000000000000000069eaf619c25521781b7267016911d7043acbc420",
            "0x000000000000000000000000b5d78dd3276325f5faf3106cc4acc56e28e0fe3b"
          ],
          "data": "0x00000000000000000000000000000000000000000000000000000000000f4240",
          "blockHash": "0xe2f477f3df1fd57498d79f2f90fe1d11541eb4ec681bba462bef9d15c24b6821",
          "blockNumber": "0x2187c4e",
          "transactionHash": "0x782bffb906b45e9cfade0f1fcd3b7db829b761ca30ceccb02703cbc017927ba4",
          "transactionIndex": "0x0",
          "logIndex": "0x0",
          "removed": false
        }
      ],
      "logsBloom": "0x00200000000000001000000000000000000000000000000000000000000000000000000000000000000000000000100000010000000000000000000000200000000000000000000000000000000000000000000000080000000000000000000000800000000000000000000000000000000000000000000000000000000000000000000000000000000000000000000000000000000000000000000000000000820000000000000000000000000000000000000000080000000000000000000000000000000000000000000000000000080000000000000000000000000000000010000000000000000000000000000000000000000000000000000000000000",
      "type": "0x2",
      "transactionHash": "0x782bffb906b45e9cfade0f1fcd3b7db829b761ca30ceccb02703cbc017927ba4",
      "transactionIndex": "0x0",
      "blockHash": "0xe2f477f3df1fd57498d79f2f90fe1d11541eb4ec681bba462bef9d15c24b6821",
      "blockNumber": "0x2187c4e",
      "gasUsed": "0xd88d",
      "effectiveGasPrice": "0xcb54c",
      "blobGasUsed": "0x0",
      "from": "0x69eaf619c25521781b7267016911d7043acbc420",
      "to": "0x833589fcd6edb6e08f4c7c32d4f71b54bda02913",
      "contractAddress": null
    }
  ],
  "libraries": [],
  "pending": [],
  "returns": {},
  "timestamp": 1759283624677,
  "chain": 8453,
  "commit": "7b626b7"
}